{
  "_format": "hh-sol-artifact-1",
  "contractName": "EggClickerV2",
  "sourceName": "contracts/EggClickerV2.sol",
  "abi": [
    {
      "inputs": [
        {
          "internalType": "address",
          "name": "_usdcToken",
          "type": "address"
        }
      ],
      "stateMutability": "nonpayable",
      "type": "constructor"
    },
    {
      "inputs": [
        {
          "internalType": "address",
          "name": "owner",
          "type": "address"
        }
      ],
      "name": "OwnableInvalidOwner",
      "type": "error"
    },
    {
      "inputs": [
        {
          "internalType": "address",
          "name": "account",
          "type": "address"
        }
      ],
      "name": "OwnableUnauthorizedAccount",
      "type": "error"
    },
    {
      "inputs": [
        {
          "internalType": "address",
          "name": "token",
          "type": "address"
        }
      ],
      "name": "SafeERC20FailedOperation",
      "type": "error"
    },
    {
      "anonymous": false,
      "inputs": [
        {
          "indexed": true,
          "internalType": "address",
          "name": "player",
          "type": "address"
        },
        {
          "indexed": false,
          "internalType": "uint256",
          "name": "currentStreak",
          "type": "uint256"
        },
        {
          "indexed": false,
          "internalType": "uint256",
          "name": "eggsGiven",
          "type": "uint256"
        }
      ],
      "name": "DailyClaimed",
      "type": "event"
    },
    {
      "anonymous": false,
      "inputs": [
        {
          "indexed": false,
          "internalType": "uint256",
          "name": "newTapFee",
          "type": "uint256"
        },
        {
          "indexed": false,
          "internalType": "uint256",
          "name": "newDailyClaimFee",
          "type": "uint256"
        }
      ],
      "name": "FeesUpdated",
      "type": "event"
    },
    {
      "anonymous": false,
      "inputs": [
        {
          "indexed": true,
          "internalType": "address",
          "name": "previousOwner",
          "type": "address"
        },
        {
          "indexed": true,
          "internalType": "address",
          "name": "newOwner",
          "type": "address"
        }
      ],
      "name": "OwnershipTransferred",
      "type": "event"
    },
    {
      "anonymous": false,
      "inputs": [
        {
          "indexed": true,
          "internalType": "address",
          "name": "player",
          "type": "address"
        },
        {
          "indexed": false,
          "internalType": "uint256",
          "name": "usdcAmount",
          "type": "uint256"
        },
        {
          "indexed": false,
          "internalType": "uint256",
          "name": "eggsSpent",
          "type": "uint256"
        }
      ],
      "name": "RewardClaimed",
      "type": "event"
    },
    {
      "anonymous": false,
      "inputs": [
        {
          "indexed": true,
          "internalType": "uint256",
          "name": "oldSeason",
          "type": "uint256"
        },
        {
          "indexed": true,
          "internalType": "uint256",
          "name": "newSeason",
          "type": "uint256"
        }
      ],
      "name": "SeasonChanged",
      "type": "event"
    },
    {
      "anonymous": false,
      "inputs": [
        {
          "indexed": true,
          "internalType": "uint256",
          "name": "season",
          "type": "uint256"
        },
        {
          "indexed": true,
          "internalType": "address",
          "name": "player",
          "type": "address"
        },
        {
          "indexed": false,
          "internalType": "uint256",
          "name": "newBalance",
          "type": "uint256"
        }
      ],
      "name": "SeasonEggsUpdated",
      "type": "event"
    },
    {
      "anonymous": false,
      "inputs": [
        {
          "indexed": false,
          "internalType": "uint256",
          "name": "newTarget",
          "type": "uint256"
        }
      ],
      "name": "SeasonTargetUpdated",
      "type": "event"
    },
    {
      "anonymous": false,
      "inputs": [
        {
          "indexed": true,
          "internalType": "address",
          "name": "player",
          "type": "address"
        },
        {
          "indexed": false,
          "internalType": "uint256",
          "name": "restoredStreak",
          "type": "uint256"
        }
      ],
      "name": "StreakRestored",
      "type": "event"
    },
    {
      "anonymous": false,
      "inputs": [
        {
          "indexed": true,
          "internalType": "address",
          "name": "player",
          "type": "address"
        },
        {
          "indexed": false,
          "internalType": "uint256",
          "name": "newScore",
          "type": "uint256"
        },
        {
          "indexed": false,
          "internalType": "uint256",
          "name": "globalScore",
          "type": "uint256"
        },
        {
          "indexed": false,
          "internalType": "uint256",
          "name": "newEggBalance",
          "type": "uint256"
        }
      ],
      "name": "Tapped",
      "type": "event"
    },
    {
      "anonymous": false,
      "inputs": [
        {
          "indexed": true,
          "internalType": "address",
          "name": "owner",
          "type": "address"
        },
        {
          "indexed": false,
          "internalType": "uint256",
          "name": "amount",
          "type": "uint256"
        }
      ],
      "name": "WithdrawnETH",
      "type": "event"
    },
    {
      "anonymous": false,
      "inputs": [
        {
          "indexed": true,
          "internalType": "address",
          "name": "owner",
          "type": "address"
        },
        {
          "indexed": false,
          "internalType": "uint256",
          "name": "amount",
          "type": "uint256"
        }
      ],
      "name": "WithdrawnUSDC",
      "type": "event"
    },
    {
      "inputs": [
        {
          "internalType": "address",
          "name": "",
          "type": "address"
        }
      ],
      "name": "brokenStreak",
      "outputs": [
        {
          "internalType": "uint256",
          "name": "",
          "type": "uint256"
        }
      ],
      "stateMutability": "view",
      "type": "function"
    },
    {
      "inputs": [
        {
          "internalType": "uint8",
          "name": "tier",
          "type": "uint8"
        }
      ],
      "name": "claimReward",
      "outputs": [],
      "stateMutability": "nonpayable",
      "type": "function"
    },
    {
      "inputs": [],
      "name": "currentSeason",
      "outputs": [
        {
          "internalType": "uint256",
          "name": "",
          "type": "uint256"
        }
      ],
      "stateMutability": "view",
      "type": "function"
    },
    {
      "inputs": [],
      "name": "dailyClaim",
      "outputs": [],
      "stateMutability": "payable",
      "type": "function"
    },
    {
      "inputs": [],
      "name": "dailyClaimFee",
      "outputs": [
        {
          "internalType": "uint256",
          "name": "",
          "type": "uint256"
        }
      ],
      "stateMutability": "view",
      "type": "function"
    },
    {
      "inputs": [
        {
          "internalType": "address",
          "name": "",
          "type": "address"
        }
      ],
      "name": "eggBalances",
      "outputs": [
        {
          "internalType": "uint256",
          "name": "",
          "type": "uint256"
        }
      ],
      "stateMutability": "view",
      "type": "function"
    },
    {
      "inputs": [],
      "name": "globalScore",
      "outputs": [
        {
          "internalType": "uint256",
          "name": "",
          "type": "uint256"
        }
      ],
      "stateMutability": "view",
      "type": "function"
    },
    {
      "inputs": [
        {
          "internalType": "address[]",
          "name": "players",
          "type": "address[]"
        },
        {
          "internalType": "uint256[]",
          "name": "_scores",
          "type": "uint256[]"
        },
        {
          "internalType": "uint256[]",
          "name": "_eggs",
          "type": "uint256[]"
        }
      ],
      "name": "importState",
      "outputs": [],
      "stateMutability": "nonpayable",
      "type": "function"
    },
    {
      "inputs": [
        {
          "internalType": "address",
          "name": "",
          "type": "address"
        }
      ],
      "name": "imported",
      "outputs": [
        {
          "internalType": "bool",
          "name": "",
          "type": "bool"
        }
      ],
      "stateMutability": "view",
      "type": "function"
    },
    {
      "inputs": [
        {
          "internalType": "address",
          "name": "",
          "type": "address"
        }
      ],
      "name": "lastClaimTime",
      "outputs": [
        {
          "internalType": "uint256",
          "name": "",
          "type": "uint256"
        }
      ],
      "stateMutability": "view",
      "type": "function"
    },
    {
      "inputs": [],
      "name": "nextSeason",
      "outputs": [],
      "stateMutability": "nonpayable",
      "type": "function"
    },
    {
      "inputs": [],
      "name": "owner",
      "outputs": [
        {
          "internalType": "address",
          "name": "",
          "type": "address"
        }
      ],
      "stateMutability": "view",
      "type": "function"
    },
    {
      "inputs": [],
      "name": "renounceOwnership",
      "outputs": [],
      "stateMutability": "nonpayable",
      "type": "function"
    },
    {
      "inputs": [],
      "name": "restoreStreak",
      "outputs": [],
      "stateMutability": "payable",
      "type": "function"
    },
    {
      "inputs": [
        {
          "internalType": "address",
          "name": "",
          "type": "address"
        }
      ],
      "name": "scores",
      "outputs": [
        {
          "internalType": "uint256",
          "name": "",
          "type": "uint256"
        }
      ],
      "stateMutability": "view",
      "type": "function"
    },
    {
      "inputs": [
        {
          "internalType": "uint256",
          "name": "",
          "type": "uint256"
        },
        {
          "internalType": "address",
          "name": "",
          "type": "address"
        }
      ],
      "name": "seasonEggs",
      "outputs": [
        {
          "internalType": "uint256",
          "name": "",
          "type": "uint256"
        }
      ],
      "stateMutability": "view",
      "type": "function"
    },
    {
      "inputs": [],
      "name": "seasonTarget",
      "outputs": [
        {
          "internalType": "uint256",
          "name": "",
          "type": "uint256"
        }
      ],
      "stateMutability": "view",
      "type": "function"
    },
    {
      "inputs": [],
      "name": "seasonTotalEggs",
      "outputs": [
        {
          "internalType": "uint256",
          "name": "",
          "type": "uint256"
        }
      ],
      "stateMutability": "view",
      "type": "function"
    },
    {
      "inputs": [
        {
          "internalType": "uint256",
          "name": "_tapFee",
          "type": "uint256"
        },
        {
          "internalType": "uint256",
          "name": "_dailyClaimFee",
          "type": "uint256"
        }
      ],
      "name": "setFees",
      "outputs": [],
      "stateMutability": "nonpayable",
      "type": "function"
    },
    {
      "inputs": [
        {
          "internalType": "uint256",
          "name": "_newTarget",
          "type": "uint256"
        }
      ],
      "name": "setSeasonTarget",
      "outputs": [],
      "stateMutability": "nonpayable",
      "type": "function"
    },
    {
      "inputs": [
        {
          "internalType": "address",
          "name": "",
          "type": "address"
        }
      ],
      "name": "streakCount",
      "outputs": [
        {
          "internalType": "uint256",
          "name": "",
          "type": "uint256"
        }
      ],
      "stateMutability": "view",
      "type": "function"
    },
    {
      "inputs": [],
      "name": "tap",
      "outputs": [],
      "stateMutability": "payable",
      "type": "function"
    },
    {
      "inputs": [],
      "name": "tapFee",
      "outputs": [
        {
          "internalType": "uint256",
          "name": "",
          "type": "uint256"
        }
      ],
      "stateMutability": "view",
      "type": "function"
    },
    {
      "inputs": [
        {
          "internalType": "address",
          "name": "newOwner",
          "type": "address"
        }
      ],
      "name": "transferOwnership",
      "outputs": [],
      "stateMutability": "nonpayable",
      "type": "function"
    },
    {
      "inputs": [],
      "name": "usdcToken",
      "outputs": [
        {
          "internalType": "contract IERC20",
          "name": "",
          "type": "address"
        }
      ],
      "stateMutability": "view",
      "type": "function"
    },
    {
      "inputs": [],
      "name": "withdrawETH",
      "outputs": [],
      "stateMutability": "nonpayable",
      "type": "function"
    },
    {
      "inputs": [
        {
          "internalType": "uint256",
          "name": "amount",
          "type": "uint256"
        }
      ],
      "name": "withdrawUSDC",
      "outputs": [],
      "stateMutability": "nonpayable",
      "type": "function"
    }
  ],
  "bytecode": "0x6080604052650500918bd800600355653faa252260006004556000600955620f4240600a553480156200003157600080fd5b5060405162002edc38038062002edc83398181016040528101906200005791906200025f565b336001600081905550600073ffffffffffffffffffffffffffffffffffffffff168173ffffffffffffffffffffffffffffffffffffffff1603620000d55760006040517f1e4fbdf7000000000000000000000000000000000000000000000000000000008152600401620000cc9190620002a2565b60405180910390fd5b620000e6816200012f60201b60201c565b5080600260006101000a81548173ffffffffffffffffffffffffffffffffffffffff021916908373ffffffffffffffffffffffffffffffffffffffff16021790555050620002bf565b6000600160009054906101000a900473ffffffffffffffffffffffffffffffffffffffff16905081600160006101000a81548173ffffffffffffffffffffffffffffffffffffffff021916908373ffffffffffffffffffffffffffffffffffffffff1602179055508173ffffffffffffffffffffffffffffffffffffffff168173ffffffffffffffffffffffffffffffffffffffff167f8be0079c531659141344cd1fd0a4f28419497f9722a3daafe3b4186f6b6457e060405160405180910390a35050565b600080fd5b600073ffffffffffffffffffffffffffffffffffffffff82169050919050565b60006200022782620001fa565b9050919050565b62000239816200021a565b81146200024557600080fd5b50565b60008151905062000259816200022e565b92915050565b600060208284031215620002785762000277620001f5565b5b6000620002888482850162000248565b91505092915050565b6200029c816200021a565b82525050565b6000602082019050620002b9600083018462000291565b92915050565b612c0d80620002cf6000396000f3fe60806040526004361061019c5760003560e01c80638c2fbcc3116100ec578063bcb396211161008a578063db81f99b11610064578063db81f99b1461058a578063e086e5ec146105b3578063f2fde38b146105ca578063fd221031146105f35761019c565b8063bcb39621146104f7578063c95c16af14610522578063cbbe46681461055f5761019c565b806398f23ea2116100c657806398f23ea21461043b578063b03381bc14610466578063b77cf9c6146104a3578063bc734f0f146104e05761019c565b80638c2fbcc3146103a85780638da5cb5b146103e557806398b321ee146104105761019c565b806365918e37116101595780636bfe6d60116101335780636bfe6d601461030d578063715018a61461031757806376dd110f1461032e5780637f66f9561461036b5761019c565b806365918e371461027e57806366fe3044146102bb578063689f1623146102e45761019c565b80630b78f9c0146101a15780630f1ccf8a146101ca57806311eac855146101f55780631243bab11461022057806332b51b1c1461024957806349567fd014610274575b600080fd5b3480156101ad57600080fd5b506101c860048036038101906101c3919061204f565b6105fd565b005b3480156101d657600080fd5b506101df610650565b6040516101ec919061209e565b60405180910390f35b34801561020157600080fd5b5061020a610656565b6040516102179190612138565b60405180910390f35b34801561022c57600080fd5b506102476004803603810190610242919061220e565b61067c565b005b34801561025557600080fd5b5061025e61081b565b60405161026b919061209e565b60405180910390f35b61027c610821565b005b34801561028a57600080fd5b506102a560048036038101906102a09190612300565b610be2565b6040516102b2919061209e565b60405180910390f35b3480156102c757600080fd5b506102e260048036038101906102dd9190612340565b610c07565b005b3480156102f057600080fd5b5061030b600480360381019061030691906123a6565b610c50565b005b610315610fb1565b005b34801561032357600080fd5b5061032c61132c565b005b34801561033a57600080fd5b50610355600480360381019061035091906123d3565b611340565b604051610362919061209e565b60405180910390f35b34801561037757600080fd5b50610392600480360381019061038d91906123d3565b611358565b60405161039f919061209e565b60405180910390f35b3480156103b457600080fd5b506103cf60048036038101906103ca91906123d3565b611370565b6040516103dc919061209e565b60405180910390f35b3480156103f157600080fd5b506103fa611388565b604051610407919061240f565b60405180910390f35b34801561041c57600080fd5b506104256113b2565b604051610432919061209e565b60405180910390f35b34801561044757600080fd5b506104506113b8565b60405161045d919061209e565b60405180910390f35b34801561047257600080fd5b5061048d600480360381019061048891906123d3565b6113be565b60405161049a919061209e565b60405180910390f35b3480156104af57600080fd5b506104ca60048036038101906104c591906123d3565b6113d6565b6040516104d7919061209e565b60405180910390f35b3480156104ec57600080fd5b506104f56113ee565b005b34801561050357600080fd5b5061050c611497565b604051610519919061209e565b60405180910390f35b34801561052e57600080fd5b50610549600480360381019061054491906123d3565b61149d565b6040516105569190612445565b60405180910390f35b34801561056b57600080fd5b506105746114bd565b604051610581919061209e565b60405180910390f35b34801561059657600080fd5b506105b160048036038101906105ac9190612340565b6114c3565b005b3480156105bf57600080fd5b506105c8611655565b005b3480156105d657600080fd5b506105f160048036038101906105ec91906123d3565b6117b1565b005b6105fb611837565b005b61060561195b565b81600381905550806004819055507f5c6323bf1c2d7aaea2c091a4751c1c87af7f2864650c336507a77d0557af37a18282604051610644929190612460565b60405180910390a15050565b600b5481565b600260009054906101000a900473ffffffffffffffffffffffffffffffffffffffff1681565b61068461195b565b838390508686905014801561069e57508181905086869050145b6106dd576040517f08c379a00000000000000000000000000000000000000000000000000000000081526004016106d4906124e6565b60405180910390fd5b60005b86869050811015610812576000878783818110610700576106ff612506565b5b905060200201602081019061071591906123d3565b9050600860008273ffffffffffffffffffffffffffffffffffffffff1673ffffffffffffffffffffffffffffffffffffffff16815260200190815260200160002060009054906101000a900460ff166107fe576001600860008373ffffffffffffffffffffffffffffffffffffffff1673ffffffffffffffffffffffffffffffffffffffff16815260200190815260200160002060006101000a81548160ff0219169083151502179055506107fd818787858181106107d7576107d6612506565b5b905060200201358686868181106107f1576107f0612506565b5b905060200201356119e2565b5b50808061080a90612564565b9150506106e0565b50505050505050565b600a5481565b600260005403610866576040517f08c379a000000000000000000000000000000000000000000000000000000000815260040161085d906125f8565b60405180910390fd5b600260008190555060045434146108b2576040517f08c379a00000000000000000000000000000000000000000000000000000000081526004016108a990612664565b60405180910390fd5b6000600d60003373ffffffffffffffffffffffffffffffffffffffff1673ffffffffffffffffffffffffffffffffffffffff16815260200190815260200160002054905060004290506000821480610918575062015180826109149190612684565b8110155b610957576040517f08c379a000000000000000000000000000000000000000000000000000000000815260040161094e90612704565b60405180910390fd5b6000821415801561097557506202a300826109729190612684565b81115b15610a4357600e60003373ffffffffffffffffffffffffffffffffffffffff1673ffffffffffffffffffffffffffffffffffffffff16815260200190815260200160002054600f60003373ffffffffffffffffffffffffffffffffffffffff1673ffffffffffffffffffffffffffffffffffffffff168152602001908152602001600020819055506000600e60003373ffffffffffffffffffffffffffffffffffffffff1673ffffffffffffffffffffffffffffffffffffffff168152602001908152602001600020819055505b6001600e60003373ffffffffffffffffffffffffffffffffffffffff1673ffffffffffffffffffffffffffffffffffffffff1681526020019081526020016000206000828254610a939190612684565b925050819055506000600e60003373ffffffffffffffffffffffffffffffffffffffff1673ffffffffffffffffffffffffffffffffffffffff1681526020019081526020016000205490506000601e82610aed9190612753565b905060008103610afc57601e90505b6000600a905060078203610b135760149050610b33565b600e8203610b245760149050610b32565b601e8203610b3157601e90505b5b5b610b3f33600a836119e2565b83600d60003373ffffffffffffffffffffffffffffffffffffffff1673ffffffffffffffffffffffffffffffffffffffff168152602001908152602001600020819055503373ffffffffffffffffffffffffffffffffffffffff167f986a21c50af40c69d6b4237d51802a57f47ebfd0be020b44731de0a565092aaa8483604051610bcb929190612460565b60405180910390a250505050506001600081905550565b600c602052816000526040600020602052806000526040600020600091509150505481565b610c0f61195b565b80600a819055507f9694561cc02596ee56aa46716f86a1b2742c5bc0392d48e5bcaa4e08413f485181604051610c45919061209e565b60405180910390a150565b600260005403610c95576040517f08c379a0000000000000000000000000000000000000000000000000000000008152600401610c8c906125f8565b60405180910390fd5b600260008190555060008060018360ff1603610cba57601e9150620186a09050610d9d565b60028360ff1603610cd457605091506207a1209050610d9c565b60038360ff1603610cee5760969150620f42409050610d9b565b60048360ff1603610d095761028a9150624c4b409050610d9a565b60058360ff1603610d24576104b09150629896809050610d99565b60068360ff1603610d405761157c91506302faf0809050610d98565b60078360ff1603610d5c5761290491506305f5e1009050610d97565b6040517f08c379a0000000000000000000000000000000000000000000000000000000008152600401610d8e906127d0565b60405180910390fd5b5b5b5b5b5b5b81600760003373ffffffffffffffffffffffffffffffffffffffff1673ffffffffffffffffffffffffffffffffffffffff168152602001908152602001600020541015610e1f576040517f08c379a0000000000000000000000000000000000000000000000000000000008152600401610e169061283c565b60405180910390fd5b80600260009054906101000a900473ffffffffffffffffffffffffffffffffffffffff1673ffffffffffffffffffffffffffffffffffffffff166370a08231306040518263ffffffff1660e01b8152600401610e7b919061240f565b602060405180830381865afa158015610e98573d6000803e3d6000fd5b505050506040513d601f19601f82011682018060405250810190610ebc9190612871565b1015610efd576040517f08c379a0000000000000000000000000000000000000000000000000000000008152600401610ef4906128ea565b60405180910390fd5b610f073383611be5565b610f543382600260009054906101000a900473ffffffffffffffffffffffffffffffffffffffff1673ffffffffffffffffffffffffffffffffffffffff16611e849092919063ffffffff16565b3373ffffffffffffffffffffffffffffffffffffffff167ff01da32686223933d8a18a391060918c7f11a3648639edd87ae013e2e27317438284604051610f9c929190612460565b60405180910390a25050600160008190555050565b600260005403610ff6576040517f08c379a0000000000000000000000000000000000000000000000000000000008152600401610fed906125f8565b60405180910390fd5b60026000819055506004543414611042576040517f08c379a000000000000000000000000000000000000000000000000000000000815260040161103990612664565b60405180910390fd5b6000600f60003373ffffffffffffffffffffffffffffffffffffffff1673ffffffffffffffffffffffffffffffffffffffff16815260200190815260200160002054116110c4576040517f08c379a00000000000000000000000000000000000000000000000000000000081526004016110bb90612956565b60405180910390fd5b6001600f60003373ffffffffffffffffffffffffffffffffffffffff1673ffffffffffffffffffffffffffffffffffffffff168152602001908152602001600020546111109190612684565b600e60003373ffffffffffffffffffffffffffffffffffffffff1673ffffffffffffffffffffffffffffffffffffffff168152602001908152602001600020819055506000600f60003373ffffffffffffffffffffffffffffffffffffffff1673ffffffffffffffffffffffffffffffffffffffff168152602001908152602001600020819055506000600e60003373ffffffffffffffffffffffffffffffffffffffff1673ffffffffffffffffffffffffffffffffffffffff1681526020019081526020016000205490506000601e826111eb9190612753565b9050600081036111fa57601e90505b6000600a9050600782036112115760149050611231565b600e82036112225760149050611230565b601e820361122f57601e90505b5b5b61123d33600a836119e2565b42600d60003373ffffffffffffffffffffffffffffffffffffffff1673ffffffffffffffffffffffffffffffffffffffff168152602001908152602001600020819055503373ffffffffffffffffffffffffffffffffffffffff167f6c7cae11adf3b1a938c85794dbdaff119d3d5022acca24ed63ff8e9550b195ed846040516112c7919061209e565b60405180910390a23373ffffffffffffffffffffffffffffffffffffffff167f986a21c50af40c69d6b4237d51802a57f47ebfd0be020b44731de0a565092aaa8483604051611317929190612460565b60405180910390a25050506001600081905550565b61133461195b565b61133e6000611ed7565b565b60066020528060005260406000206000915090505481565b600f6020528060005260406000206000915090505481565b60076020528060005260406000206000915090505481565b6000600160009054906101000a900473ffffffffffffffffffffffffffffffffffffffff16905090565b60045481565b60035481565b600e6020528060005260406000206000915090505481565b600d6020528060005260406000206000915090505481565b6113f661195b565b600a54600b54101561143d576040517f08c379a0000000000000000000000000000000000000000000000000000000008152600401611434906129c2565b60405180910390fd5b600060095490506009600081548092919061145790612564565b91905055506000600b81905550600954817fc10fb081607c5cd4f8580ca12696f39a0212fc426b51a19e521fd4611008f11160405160405180910390a350565b60095481565b60086020528060005260406000206000915054906101000a900460ff1681565b60055481565b6114cb61195b565b80600260009054906101000a900473ffffffffffffffffffffffffffffffffffffffff1673ffffffffffffffffffffffffffffffffffffffff166370a08231306040518263ffffffff1660e01b8152600401611527919061240f565b602060405180830381865afa158015611544573d6000803e3d6000fd5b505050506040513d601f19601f820116820180604052508101906115689190612871565b10156115a9576040517f08c379a00000000000000000000000000000000000000000000000000000000081526004016115a090612a2e565b60405180910390fd5b6115fd6115b4611388565b82600260009054906101000a900473ffffffffffffffffffffffffffffffffffffffff1673ffffffffffffffffffffffffffffffffffffffff16611e849092919063ffffffff16565b611605611388565b73ffffffffffffffffffffffffffffffffffffffff167f9064b460fd73b0517caa24227d99918304810044cab6170024069608dc4ca0e68260405161164a919061209e565b60405180910390a250565b61165d61195b565b6000479050600081116116a5576040517f08c379a000000000000000000000000000000000000000000000000000000000815260040161169c90612a9a565b60405180910390fd5b60006116af611388565b73ffffffffffffffffffffffffffffffffffffffff16826040516116d290612aeb565b60006040518083038185875af1925050503d806000811461170f576040519150601f19603f3d011682016040523d82523d6000602084013e611714565b606091505b5050905080611758576040517f08c379a000000000000000000000000000000000000000000000000000000000815260040161174f90612b4c565b60405180910390fd5b611760611388565b73ffffffffffffffffffffffffffffffffffffffff167f5817fe91d2748c33f168d8a78037fc073adaf6ec8e3613a758d44a2cfae4563d836040516117a5919061209e565b60405180910390a25050565b6117b961195b565b600073ffffffffffffffffffffffffffffffffffffffff168173ffffffffffffffffffffffffffffffffffffffff160361182b5760006040517f1e4fbdf7000000000000000000000000000000000000000000000000000000008152600401611822919061240f565b60405180910390fd5b61183481611ed7565b50565b600354341461187b576040517f08c379a000000000000000000000000000000000000000000000000000000000815260040161187290612664565b60405180910390fd5b611887336001806119e2565b3373ffffffffffffffffffffffffffffffffffffffff167feef1c5f1d9888b12faa42ea952a8e547d473e451d1a61dd71abba55c657fcf18600660003373ffffffffffffffffffffffffffffffffffffffff1673ffffffffffffffffffffffffffffffffffffffff16815260200190815260200160002054600554600760003373ffffffffffffffffffffffffffffffffffffffff1673ffffffffffffffffffffffffffffffffffffffff1681526020019081526020016000205460405161195193929190612b6c565b60405180910390a2565b611963611f9d565b73ffffffffffffffffffffffffffffffffffffffff16611981611388565b73ffffffffffffffffffffffffffffffffffffffff16146119e0576119a4611f9d565b6040517f118cdaa70000000000000000000000000000000000000000000000000000000081526004016119d7919061240f565b60405180910390fd5b565b6000821115611a5b5781600660008573ffffffffffffffffffffffffffffffffffffffff1673ffffffffffffffffffffffffffffffffffffffff1681526020019081526020016000206000828254611a3a9190612684565b925050819055508160056000828254611a539190612684565b925050819055505b6000811115611be05780600760008573ffffffffffffffffffffffffffffffffffffffff1673ffffffffffffffffffffffffffffffffffffffff1681526020019081526020016000206000828254611ab39190612684565b9250508190555080600c6000600954815260200190815260200160002060008573ffffffffffffffffffffffffffffffffffffffff1673ffffffffffffffffffffffffffffffffffffffff1681526020019081526020016000206000828254611b1c9190612684565b9250508190555080600b6000828254611b359190612684565b925050819055508273ffffffffffffffffffffffffffffffffffffffff166009547fd6dfe66114f8756069222b5ec78bf6671dd4a0e483f41b3bb67c2ba318b957cf600c6000600954815260200190815260200160002060008773ffffffffffffffffffffffffffffffffffffffff1673ffffffffffffffffffffffffffffffffffffffff16815260200190815260200160002054604051611bd7919061209e565b60405180910390a35b505050565b80600760008473ffffffffffffffffffffffffffffffffffffffff1673ffffffffffffffffffffffffffffffffffffffff168152602001908152602001600020541015611c67576040517f08c379a0000000000000000000000000000000000000000000000000000000008152600401611c5e9061283c565b60405180910390fd5b80600760008473ffffffffffffffffffffffffffffffffffffffff1673ffffffffffffffffffffffffffffffffffffffff1681526020019081526020016000206000828254611cb69190612ba3565b9250508190555080600c6000600954815260200190815260200160002060008473ffffffffffffffffffffffffffffffffffffffff1673ffffffffffffffffffffffffffffffffffffffff1681526020019081526020016000205410611d845780600c6000600954815260200190815260200160002060008473ffffffffffffffffffffffffffffffffffffffff1673ffffffffffffffffffffffffffffffffffffffff1681526020019081526020016000206000828254611d789190612ba3565b92505081905550611ddd565b6000600c6000600954815260200190815260200160002060008473ffffffffffffffffffffffffffffffffffffffff1673ffffffffffffffffffffffffffffffffffffffff168152602001908152602001600020819055505b8173ffffffffffffffffffffffffffffffffffffffff166009547fd6dfe66114f8756069222b5ec78bf6671dd4a0e483f41b3bb67c2ba318b957cf600c6000600954815260200190815260200160002060008673ffffffffffffffffffffffffffffffffffffffff1673ffffffffffffffffffffffffffffffffffffffff16815260200190815260200160002054604051611e78919061209e565b60405180910390a35050565b611e918383836001611fa5565b611ed257826040517f5274afe7000000000000000000000000000000000000000000000000000000008152600401611ec9919061240f565b60405180910390fd5b505050565b6000600160009054906101000a900473ffffffffffffffffffffffffffffffffffffffff16905081600160006101000a81548173ffffffffffffffffffffffffffffffffffffffff021916908373ffffffffffffffffffffffffffffffffffffffff1602179055508173ffffffffffffffffffffffffffffffffffffffff168173ffffffffffffffffffffffffffffffffffffffff167f8be0079c531659141344cd1fd0a4f28419497f9722a3daafe3b4186f6b6457e060405160405180910390a35050565b600033905090565b60008063a9059cbb60e01b90506040518160005260001960601c8616600452846024526020600060446000808b5af192506001600051148316612001578383151615611ff4573d6000823e3d81fd5b6000873b113d1516831692505b806040525050949350505050565b600080fd5b600080fd5b6000819050919050565b61202c81612019565b811461203757600080fd5b50565b60008135905061204981612023565b92915050565b600080604083850312156120665761206561200f565b5b60006120748582860161203a565b92505060206120858582860161203a565b9150509250929050565b61209881612019565b82525050565b60006020820190506120b3600083018461208f565b92915050565b600073ffffffffffffffffffffffffffffffffffffffff82169050919050565b6000819050919050565b60006120fe6120f96120f4846120b9565b6120d9565b6120b9565b9050919050565b6000612110826120e3565b9050919050565b600061212282612105565b9050919050565b61213281612117565b82525050565b600060208201905061214d6000830184612129565b92915050565b600080fd5b600080fd5b600080fd5b60008083601f84011261217857612177612153565b5b8235905067ffffffffffffffff81111561219557612194612158565b5b6020830191508360208202830111156121b1576121b061215d565b5b9250929050565b60008083601f8401126121ce576121cd612153565b5b8235905067ffffffffffffffff8111156121eb576121ea612158565b5b6020830191508360208202830111156122075761220661215d565b5b9250929050565b6000806000806000806060878903121561222b5761222a61200f565b5b600087013567ffffffffffffffff81111561224957612248612014565b5b61225589828a01612162565b9650965050602087013567ffffffffffffffff81111561227857612277612014565b5b61228489828a016121b8565b9450945050604087013567ffffffffffffffff8111156122a7576122a6612014565b5b6122b389828a016121b8565b92509250509295509295509295565b60006122cd826120b9565b9050919050565b6122dd816122c2565b81146122e857600080fd5b50565b6000813590506122fa816122d4565b92915050565b600080604083850312156123175761231661200f565b5b60006123258582860161203a565b9250506020612336858286016122eb565b9150509250929050565b6000602082840312156123565761235561200f565b5b60006123648482850161203a565b91505092915050565b600060ff82169050919050565b6123838161236d565b811461238e57600080fd5b50565b6000813590506123a08161237a565b92915050565b6000602082840312156123bc576123bb61200f565b5b60006123ca84828501612391565b91505092915050565b6000602082840312156123e9576123e861200f565b5b60006123f7848285016122eb565b91505092915050565b612409816122c2565b82525050565b60006020820190506124246000830184612400565b92915050565b60008115159050919050565b61243f8161242a565b82525050565b600060208201905061245a6000830184612436565b92915050565b6000604082019050612475600083018561208f565b612482602083018461208f565b9392505050565b600082825260208201905092915050565b7f4d69736d617463686564206c656e677468730000000000000000000000000000600082015250565b60006124d0601283612489565b91506124db8261249a565b602082019050919050565b600060208201905081810360008301526124ff816124c3565b9050919050565b7f4e487b7100000000000000000000000000000000000000000000000000000000600052603260045260246000fd5b7f4e487b7100000000000000000000000000000000000000000000000000000000600052601160045260246000fd5b600061256f82612019565b91507fffffffffffffffffffffffffffffffffffffffffffffffffffffffffffffffff82036125a1576125a0612535565b5b600182019050919050565b7f5265656e7472616e637947756172643a207265656e7472616e742063616c6c00600082015250565b60006125e2601f83612489565b91506125ed826125ac565b602082019050919050565b60006020820190508181036000830152612611816125d5565b9050919050565b7f496e636f72726563742066656520616d6f756e74000000000000000000000000600082015250565b600061264e601483612489565b915061265982612618565b602082019050919050565b6000602082019050818103600083015261267d81612641565b9050919050565b600061268f82612019565b915061269a83612019565b92508282019050808211156126b2576126b1612535565b5b92915050565b7f436f6d65206261636b20746f6d6f72726f770000000000000000000000000000600082015250565b60006126ee601283612489565b91506126f9826126b8565b602082019050919050565b6000602082019050818103600083015261271d816126e1565b9050919050565b7f4e487b7100000000000000000000000000000000000000000000000000000000600052601260045260246000fd5b600061275e82612019565b915061276983612019565b92508261277957612778612724565b5b828206905092915050565b7f496e76616c696420746965720000000000000000000000000000000000000000600082015250565b60006127ba600c83612489565b91506127c582612784565b602082019050919050565b600060208201905081810360008301526127e9816127ad565b9050919050565b7f496e73756666696369656e742065676773000000000000000000000000000000600082015250565b6000612826601183612489565b9150612831826127f0565b602082019050919050565b6000602082019050818103600083015261285581612819565b9050919050565b60008151905061286b81612023565b92915050565b6000602082840312156128875761288661200f565b5b60006128958482850161285c565b91505092915050565b7f436f6e7472616374206f7574206f662055534443000000000000000000000000600082015250565b60006128d4601483612489565b91506128df8261289e565b602082019050919050565b60006020820190508181036000830152612903816128c7565b9050919050565b7f4e6f2062726f6b656e2073747265616b20746f20726573746f72650000000000600082015250565b6000612940601b83612489565b915061294b8261290a565b602082019050919050565b6000602082019050818103600083015261296f81612933565b9050919050565b7f536561736f6e20746172676574206e6f74207265616368656400000000000000600082015250565b60006129ac601983612489565b91506129b782612976565b602082019050919050565b600060208201905081810360008301526129db8161299f565b9050919050565b7f496e73756666696369656e742055534443000000000000000000000000000000600082015250565b6000612a18601183612489565b9150612a23826129e2565b602082019050919050565b60006020820190508181036000830152612a4781612a0b565b9050919050565b7f4e6f2045544820746f2077697468647261770000000000000000000000000000600082015250565b6000612a84601283612489565b9150612a8f82612a4e565b602082019050919050565b60006020820190508181036000830152612ab381612a77565b9050919050565b600081905092915050565b50565b6000612ad5600083612aba565b9150612ae082612ac5565b600082019050919050565b6000612af682612ac8565b9150819050919050565b7f455448205472616e73666572206661696c656400000000000000000000000000600082015250565b6000612b36601383612489565b9150612b4182612b00565b602082019050919050565b60006020820190508181036000830152612b6581612b29565b9050919050565b6000606082019050612b81600083018661208f565b612b8e602083018561208f565b612b9b604083018461208f565b949350505050565b6000612bae82612019565b9150612bb983612019565b9250828203905081811115612bd157612bd0612535565b5b9291505056fea26469706673582212209dc297008dc8cc0f7b6c62a2748adf694e9b3cd3b3bab3ead0c69f11c8c86c6264736f6c63430008140033",
  "linkReferences": {},
  "deployedLinkReferences": {}
}